{
    "address": "0x016E1bc930Bc903B9D1EaDE972b6a385DF8c53A5",
    "abi": [
        {
            "inputs": [],
            "stateMutability": "nonpayable",
            "type": "constructor"
        },
        {
            "inputs": [],
            "name": "doStuff",
            "outputs": [],
            "stateMutability": "view",
            "type": "function"
        }
    ],
    "transactionHash": "0xfb16a3379ffcf91f3e267efbd8d86d989a6e14ed3c83e437ecabe16289144761",
    "args": [],
    "numDeployments": 1,
    "solcInputHash": "942cdadf215e7ca1a0df769e0fa748d6",
    "bytecode": "0x60a060405234801561001057600080fd5b50601960008190555060018060006101000a81548160ff021916908315150217905550600260de908060018154018082558091505060019003906000526020600020016000909190919091505560016003600080815260200190815260200160002060006101000a81548160ff021916908315150217905550607b6080818152505060805161011c6100aa6000396000505061011c6000f3fe6080604052348015600f57600080fd5b506004361060285760003560e01c8063874f33a114602d575b600080fd5b60336035565b005b60006001600054604491906097565b90506000600160009054906101000a900460ff1690505050565b6000819050919050565b7f4e487b7100000000000000000000000000000000000000000000000000000000600052601160045260246000fd5b600060a082605e565b915060a983605e565b9250827fffffffffffffffffffffffffffffffffffffffffffffffffffffffffffffffff0382111560db5760da6068565b5b82820190509291505056fea2646970667358221220f6bd0fcfb9143b592f1e95ccea0e60fb75740e85d04daf2c1dde1bdad26340a864736f6c63430008090033",
    "devdoc": {
        "kind": "dev",
        "methods": {},
        "version": 1
    },
    "userdoc": {
        "kind": "user",
        "methods": {},
        "version": 1
    },
    "storageLayout": {
        "storage": [
            {
                "astId": 404,
                "contract": "contracts/test/FunWithStorage.sol:FunWithStorage",
                "label": "favoriteNumber",
                "offset": 0,
                "slot": "0",
                "type": "t_uint256"
            },
            {
                "astId": 406,
                "contract": "contracts/test/FunWithStorage.sol:FunWithStorage",
                "label": "someBool",
                "offset": 0,
                "slot": "1",
                "type": "t_bool"
            },
            {
                "astId": 409,
                "contract": "contracts/test/FunWithStorage.sol:FunWithStorage",
                "label": "myArray",
                "offset": 0,
                "slot": "2",
                "type": "t_array(t_uint256)dyn_storage"
            },
            {
                "astId": 413,
                "contract": "contracts/test/FunWithStorage.sol:FunWithStorage",
                "label": "myMap",
                "offset": 0,
                "slot": "3",
                "type": "t_mapping(t_uint256,t_bool)"
            }
        ],
        "types": {
            "t_array(t_uint256)dyn_storage": {
                "base": "t_uint256",
                "encoding": "dynamic_array",
                "label": "uint256[]",
                "numberOfBytes": "32"
            },
            "t_bool": {
                "encoding": "inplace",
                "label": "bool",
                "numberOfBytes": "1"
            },
            "t_mapping(t_uint256,t_bool)": {
                "encoding": "mapping",
                "key": "t_uint256",
                "label": "mapping(uint256 => bool)",
                "numberOfBytes": "32",
                "value": "t_bool"
            },
            "t_uint256": {
                "encoding": "inplace",
                "label": "uint256",
                "numberOfBytes": "32"
            }
        }
    }
}